{
  "_format": "hh-sol-artifact-1",
  "contractName": "ERC20Custom",
  "sourceName": "contracts/ERC20/ERC20Custom.sol",
  "abi": [
    {
      "inputs": [
        {
          "internalType": "uint256",
          "name": "supply",
          "type": "uint256"
        },
        {
          "internalType": "uint8",
          "name": "decimals",
          "type": "uint8"
        },
        {
          "internalType": "uint256",
          "name": "cap",
          "type": "uint256"
        },
        {
          "internalType": "string",
          "name": "name",
          "type": "string"
        },
        {
          "internalType": "string",
          "name": "symbol",
          "type": "string"
        },
        {
          "internalType": "bool[]",
          "name": "availableFunctionality",
          "type": "bool[]"
        }
      ],
      "stateMutability": "nonpayable",
      "type": "constructor"
    },
    {
      "anonymous": false,
      "inputs": [
        {
          "indexed": true,
          "internalType": "address",
          "name": "owner",
          "type": "address"
        },
        {
          "indexed": true,
          "internalType": "address",
          "name": "spender",
          "type": "address"
        },
        {
          "indexed": false,
          "internalType": "uint256",
          "name": "value",
          "type": "uint256"
        }
      ],
      "name": "Approval",
      "type": "event"
    },
    {
      "anonymous": false,
      "inputs": [
        {
          "indexed": true,
          "internalType": "address",
          "name": "previousOwner",
          "type": "address"
        },
        {
          "indexed": true,
          "internalType": "address",
          "name": "newOwner",
          "type": "address"
        }
      ],
      "name": "OwnershipTransferred",
      "type": "event"
    },
    {
      "anonymous": false,
      "inputs": [
        {
          "indexed": false,
          "internalType": "address",
          "name": "account",
          "type": "address"
        }
      ],
      "name": "Paused",
      "type": "event"
    },
    {
      "anonymous": false,
      "inputs": [
        {
          "indexed": true,
          "internalType": "address",
          "name": "from",
          "type": "address"
        },
        {
          "indexed": true,
          "internalType": "address",
          "name": "to",
          "type": "address"
        },
        {
          "indexed": false,
          "internalType": "uint256",
          "name": "value",
          "type": "uint256"
        }
      ],
      "name": "Transfer",
      "type": "event"
    },
    {
      "anonymous": false,
      "inputs": [
        {
          "indexed": false,
          "internalType": "address",
          "name": "account",
          "type": "address"
        }
      ],
      "name": "Unpaused",
      "type": "event"
    },
    {
      "inputs": [
        {
          "internalType": "address",
          "name": "owner",
          "type": "address"
        },
        {
          "internalType": "address",
          "name": "spender",
          "type": "address"
        }
      ],
      "name": "allowance",
      "outputs": [
        {
          "internalType": "uint256",
          "name": "",
          "type": "uint256"
        }
      ],
      "stateMutability": "view",
      "type": "function"
    },
    {
      "inputs": [
        {
          "internalType": "address",
          "name": "spender",
          "type": "address"
        },
        {
          "internalType": "uint256",
          "name": "amount",
          "type": "uint256"
        }
      ],
      "name": "approve",
      "outputs": [
        {
          "internalType": "bool",
          "name": "",
          "type": "bool"
        }
      ],
      "stateMutability": "nonpayable",
      "type": "function"
    },
    {
      "inputs": [
        {
          "internalType": "enum ERC20Custom.Available",
          "name": "",
          "type": "uint8"
        }
      ],
      "name": "available",
      "outputs": [
        {
          "internalType": "bool",
          "name": "",
          "type": "bool"
        }
      ],
      "stateMutability": "view",
      "type": "function"
    },
    {
      "inputs": [
        {
          "internalType": "address",
          "name": "account",
          "type": "address"
        }
      ],
      "name": "balanceOf",
      "outputs": [
        {
          "internalType": "uint256",
          "name": "",
          "type": "uint256"
        }
      ],
      "stateMutability": "view",
      "type": "function"
    },
    {
      "inputs": [
        {
          "internalType": "uint256",
          "name": "amount",
          "type": "uint256"
        }
      ],
      "name": "burn",
      "outputs": [],
      "stateMutability": "nonpayable",
      "type": "function"
    },
    {
      "inputs": [
        {
          "internalType": "address",
          "name": "account",
          "type": "address"
        },
        {
          "internalType": "uint256",
          "name": "amount",
          "type": "uint256"
        }
      ],
      "name": "burnFrom",
      "outputs": [],
      "stateMutability": "nonpayable",
      "type": "function"
    },
    {
      "inputs": [],
      "name": "cap",
      "outputs": [
        {
          "internalType": "uint256",
          "name": "",
          "type": "uint256"
        }
      ],
      "stateMutability": "view",
      "type": "function"
    },
    {
      "inputs": [],
      "name": "decimals",
      "outputs": [
        {
          "internalType": "uint8",
          "name": "",
          "type": "uint8"
        }
      ],
      "stateMutability": "view",
      "type": "function"
    },
    {
      "inputs": [
        {
          "internalType": "address",
          "name": "spender",
          "type": "address"
        },
        {
          "internalType": "uint256",
          "name": "subtractedValue",
          "type": "uint256"
        }
      ],
      "name": "decreaseAllowance",
      "outputs": [
        {
          "internalType": "bool",
          "name": "",
          "type": "bool"
        }
      ],
      "stateMutability": "nonpayable",
      "type": "function"
    },
    {
      "inputs": [
        {
          "internalType": "address",
          "name": "spender",
          "type": "address"
        },
        {
          "internalType": "uint256",
          "name": "addedValue",
          "type": "uint256"
        }
      ],
      "name": "increaseAllowance",
      "outputs": [
        {
          "internalType": "bool",
          "name": "",
          "type": "bool"
        }
      ],
      "stateMutability": "nonpayable",
      "type": "function"
    },
    {
      "inputs": [
        {
          "internalType": "address",
          "name": "account",
          "type": "address"
        },
        {
          "internalType": "uint256",
          "name": "amount",
          "type": "uint256"
        }
      ],
      "name": "mint",
      "outputs": [],
      "stateMutability": "nonpayable",
      "type": "function"
    },
    {
      "inputs": [],
      "name": "name",
      "outputs": [
        {
          "internalType": "string",
          "name": "",
          "type": "string"
        }
      ],
      "stateMutability": "view",
      "type": "function"
    },
    {
      "inputs": [],
      "name": "owner",
      "outputs": [
        {
          "internalType": "address",
          "name": "",
          "type": "address"
        }
      ],
      "stateMutability": "view",
      "type": "function"
    },
    {
      "inputs": [],
      "name": "pause",
      "outputs": [],
      "stateMutability": "nonpayable",
      "type": "function"
    },
    {
      "inputs": [],
      "name": "paused",
      "outputs": [
        {
          "internalType": "bool",
          "name": "",
          "type": "bool"
        }
      ],
      "stateMutability": "view",
      "type": "function"
    },
    {
      "inputs": [],
      "name": "renounceOwnership",
      "outputs": [],
      "stateMutability": "nonpayable",
      "type": "function"
    },
    {
      "inputs": [],
      "name": "symbol",
      "outputs": [
        {
          "internalType": "string",
          "name": "",
          "type": "string"
        }
      ],
      "stateMutability": "view",
      "type": "function"
    },
    {
      "inputs": [],
      "name": "totalSupply",
      "outputs": [
        {
          "internalType": "uint256",
          "name": "",
          "type": "uint256"
        }
      ],
      "stateMutability": "view",
      "type": "function"
    },
    {
      "inputs": [
        {
          "internalType": "address",
          "name": "recipient",
          "type": "address"
        },
        {
          "internalType": "uint256",
          "name": "amount",
          "type": "uint256"
        }
      ],
      "name": "transfer",
      "outputs": [
        {
          "internalType": "bool",
          "name": "",
          "type": "bool"
        }
      ],
      "stateMutability": "nonpayable",
      "type": "function"
    },
    {
      "inputs": [
        {
          "internalType": "address",
          "name": "sender",
          "type": "address"
        },
        {
          "internalType": "address",
          "name": "recipient",
          "type": "address"
        },
        {
          "internalType": "uint256",
          "name": "amount",
          "type": "uint256"
        }
      ],
      "name": "transferFrom",
      "outputs": [
        {
          "internalType": "bool",
          "name": "",
          "type": "bool"
        }
      ],
      "stateMutability": "nonpayable",
      "type": "function"
    },
    {
      "inputs": [
        {
          "internalType": "address",
          "name": "newOwner",
          "type": "address"
        }
      ],
      "name": "transferOwnership",
      "outputs": [],
      "stateMutability": "nonpayable",
      "type": "function"
    }
  ],
  "bytecode": "0x60a06040523480156200001157600080fd5b50604051620034d7380380620034d78339818101604052810190620000379190620008e1565b828281600390805190602001906200005192919062000503565b5080600490805190602001906200006a92919062000503565b5050506000600560006101000a81548160ff021916908315150217905550620000a86200009c6200019d60201b60201c565b620001a560201b60201c565b836080818152505084600560156101000a81548160ff021916908360ff16021790555060005b60048160ff1610156200017e57818160ff1681518110620000f457620000f3620009da565b5b6020026020010151600660008360ff16600381111562000119576200011862000a09565b5b60038111156200012e576200012d62000a09565b5b600381111562000143576200014262000a09565b5b815260200190815260200160002060006101000a81548160ff0219169083151502179055508080620001759062000a67565b915050620000ce565b506200019133876200026b60201b60201c565b50505050505062000d13565b600033905090565b6000600560019054906101000a900473ffffffffffffffffffffffffffffffffffffffff16905081600560016101000a81548173ffffffffffffffffffffffffffffffffffffffff021916908373ffffffffffffffffffffffffffffffffffffffff1602179055508173ffffffffffffffffffffffffffffffffffffffff168173ffffffffffffffffffffffffffffffffffffffff167f8be0079c531659141344cd1fd0a4f28419497f9722a3daafe3b4186f6b6457e060405160405180910390a35050565b6080518162000284620002ef60201b620004c21760201c565b62000290919062000a96565b1115620002d4576040517f08c379a0000000000000000000000000000000000000000000000000000000008152600401620002cb9062000b54565b60405180910390fd5b620002eb8282620002f960201b62000fc11760201c565b5050565b6000600254905090565b600073ffffffffffffffffffffffffffffffffffffffff168273ffffffffffffffffffffffffffffffffffffffff1614156200036c576040517f08c379a0000000000000000000000000000000000000000000000000000000008152600401620003639062000bc6565b60405180910390fd5b62000380600083836200047260201b60201c565b806002600082825462000394919062000a96565b92505081905550806000808473ffffffffffffffffffffffffffffffffffffffff1673ffffffffffffffffffffffffffffffffffffffff1681526020019081526020016000206000828254620003eb919062000a96565b925050819055508173ffffffffffffffffffffffffffffffffffffffff16600073ffffffffffffffffffffffffffffffffffffffff167fddf252ad1be2c89b69c2b068fc378daa952ba7f163c4a11628f55a4df523b3ef8360405162000452919062000bf9565b60405180910390a36200046e60008383620004e260201b60201c565b5050565b6200048a838383620004e760201b620011211760201c565b6200049a620004ec60201b60201c565b15620004dd576040517f08c379a0000000000000000000000000000000000000000000000000000000008152600401620004d49062000c8c565b60405180910390fd5b505050565b505050565b505050565b6000600560009054906101000a900460ff16905090565b828054620005119062000cdd565b90600052602060002090601f01602090048101928262000535576000855562000581565b82601f106200055057805160ff191683800117855562000581565b8280016001018555821562000581579182015b828111156200058057825182559160200191906001019062000563565b5b50905062000590919062000594565b5090565b5b80821115620005af57600081600090555060010162000595565b5090565b6000604051905090565b600080fd5b600080fd5b6000819050919050565b620005dc81620005c7565b8114620005e857600080fd5b50565b600081519050620005fc81620005d1565b92915050565b600060ff82169050919050565b6200061a8162000602565b81146200062657600080fd5b50565b6000815190506200063a816200060f565b92915050565b600080fd5b600080fd5b6000601f19601f8301169050919050565b7f4e487b7100000000000000000000000000000000000000000000000000000000600052604160045260246000fd5b62000695826200064a565b810181811067ffffffffffffffff82111715620006b757620006b66200065b565b5b80604052505050565b6000620006cc620005b3565b9050620006da82826200068a565b919050565b600067ffffffffffffffff821115620006fd57620006fc6200065b565b5b62000708826200064a565b9050602081019050919050565b60005b838110156200073557808201518184015260208101905062000718565b8381111562000745576000848401525b50505050565b6000620007626200075c84620006df565b620006c0565b90508281526020810184848401111562000781576200078062000645565b5b6200078e84828562000715565b509392505050565b600082601f830112620007ae57620007ad62000640565b5b8151620007c08482602086016200074b565b91505092915050565b600067ffffffffffffffff821115620007e757620007e66200065b565b5b602082029050602081019050919050565b600080fd5b60008115159050919050565b6200081481620007fd565b81146200082057600080fd5b50565b600081519050620008348162000809565b92915050565b6000620008516200084b84620007c9565b620006c0565b90508083825260208201905060208402830185811115620008775762000876620007f8565b5b835b81811015620008a457806200088f888262000823565b84526020840193505060208101905062000879565b5050509392505050565b600082601f830112620008c657620008c562000640565b5b8151620008d88482602086016200083a565b91505092915050565b60008060008060008060c08789031215620009015762000900620005bd565b5b60006200091189828a01620005eb565b96505060206200092489828a0162000629565b95505060406200093789828a01620005eb565b945050606087015167ffffffffffffffff8111156200095b576200095a620005c2565b5b6200096989828a0162000796565b935050608087015167ffffffffffffffff8111156200098d576200098c620005c2565b5b6200099b89828a0162000796565b92505060a087015167ffffffffffffffff811115620009bf57620009be620005c2565b5b620009cd89828a01620008ae565b9150509295509295509295565b7f4e487b7100000000000000000000000000000000000000000000000000000000600052603260045260246000fd5b7f4e487b7100000000000000000000000000000000000000000000000000000000600052602160045260246000fd5b7f4e487b7100000000000000000000000000000000000000000000000000000000600052601160045260246000fd5b600062000a748262000602565b915060ff82141562000a8b5762000a8a62000a38565b5b600182019050919050565b600062000aa382620005c7565b915062000ab083620005c7565b9250827fffffffffffffffffffffffffffffffffffffffffffffffffffffffffffffffff0382111562000ae85762000ae762000a38565b5b828201905092915050565b600082825260208201905092915050565b7f45524332304361707065643a2063617020657863656564656400000000000000600082015250565b600062000b3c60198362000af3565b915062000b498262000b04565b602082019050919050565b6000602082019050818103600083015262000b6f8162000b2d565b9050919050565b7f45524332303a206d696e7420746f20746865207a65726f206164647265737300600082015250565b600062000bae601f8362000af3565b915062000bbb8262000b76565b602082019050919050565b6000602082019050818103600083015262000be18162000b9f565b9050919050565b62000bf381620005c7565b82525050565b600060208201905062000c10600083018462000be8565b92915050565b7f45524332305061757361626c653a20746f6b656e207472616e7366657220776860008201527f696c652070617573656400000000000000000000000000000000000000000000602082015250565b600062000c74602a8362000af3565b915062000c818262000c16565b604082019050919050565b6000602082019050818103600083015262000ca78162000c65565b9050919050565b7f4e487b7100000000000000000000000000000000000000000000000000000000600052602260045260246000fd5b6000600282049050600182168062000cf657607f821691505b6020821081141562000d0d5762000d0c62000cae565b5b50919050565b6080516127a162000d3660003960008181610685015261157c01526127a16000f3fe608060405234801561001057600080fd5b50600436106101375760003560e01c80635c975abb116100b85780638da5cb5b1161007c5780638da5cb5b1461032a57806395d89b4114610348578063a457c2d714610366578063a9059cbb14610396578063dd62ed3e146103c6578063f2fde38b146103f657610137565b80635c975abb146102ac57806370a08231146102ca578063715018a6146102fa57806379cc6790146103045780638456cb591461032057610137565b8063313ce567116100ff578063313ce56714610208578063355274ea14610226578063395093511461024457806340c10f191461027457806342966c681461029057610137565b806306fdde031461013c578063095ea7b31461015a57806318160ddd1461018a57806323b872dd146101a857806324eafb62146101d8575b600080fd5b610144610412565b6040516101519190611a33565b60405180910390f35b610174600480360381019061016f9190611aee565b6104a4565b6040516101819190611b49565b60405180910390f35b6101926104c2565b60405161019f9190611b73565b60405180910390f35b6101c260048036038101906101bd9190611b8e565b6104cc565b6040516101cf9190611b49565b60405180910390f35b6101f260048036038101906101ed9190611c06565b6105c4565b6040516101ff9190611b49565b60405180910390f35b6102106105e4565b60405161021d9190611c4f565b60405180910390f35b61022e6105fb565b60405161023b9190611b73565b60405180910390f35b61025e60048036038101906102599190611aee565b6106aa565b60405161026b9190611b49565b60405180910390f35b61028e60048036038101906102899190611aee565b610756565b005b6102aa60048036038101906102a59190611c6a565b610867565b005b6102b461097e565b6040516102c19190611b49565b60405180910390f35b6102e460048036038101906102df9190611c97565b610995565b6040516102f19190611b73565b60405180910390f35b6103026109dd565b005b61031e60048036038101906103199190611aee565b610a65565b005b610328610b70565b005b610332610c7d565b60405161033f9190611cd3565b60405180910390f35b610350610ca7565b60405161035d9190611a33565b60405180910390f35b610380600480360381019061037b9190611aee565b610d39565b60405161038d9190611b49565b60405180910390f35b6103b060048036038101906103ab9190611aee565b610e24565b6040516103bd9190611b49565b60405180910390f35b6103e060048036038101906103db9190611cee565b610e42565b6040516103ed9190611b73565b60405180910390f35b610410600480360381019061040b9190611c97565b610ec9565b005b60606003805461042190611d5d565b80601f016020809104026020016040519081016040528092919081815260200182805461044d90611d5d565b801561049a5780601f1061046f5761010080835404028352916020019161049a565b820191906000526020600020905b81548152906001019060200180831161047d57829003601f168201915b5050505050905090565b60006104b86104b1611126565b848461112e565b6001905092915050565b6000600254905090565b60006104d98484846112f9565b6000600160008673ffffffffffffffffffffffffffffffffffffffff1673ffffffffffffffffffffffffffffffffffffffff1681526020019081526020016000206000610524611126565b73ffffffffffffffffffffffffffffffffffffffff1673ffffffffffffffffffffffffffffffffffffffff168152602001908152602001600020549050828110156105a4576040517f08c379a000000000000000000000000000000000000000000000000000000000815260040161059b90611e01565b60405180910390fd5b6105b8856105b0611126565b85840361112e565b60019150509392505050565b60066020528060005260406000206000915054906101000a900460ff1681565b6000600560159054906101000a900460ff16905090565b600060036006600082600381111561061657610615611e21565b5b600381111561062857610627611e21565b5b815260200190815260200160002060009054906101000a900460ff16610683576040517f08c379a000000000000000000000000000000000000000000000000000000000815260040161067a90611e9c565b60405180910390fd5b7f000000000000000000000000000000000000000000000000000000000000000091505090565b600061074c6106b7611126565b8484600160006106c5611126565b73ffffffffffffffffffffffffffffffffffffffff1673ffffffffffffffffffffffffffffffffffffffff16815260200190815260200160002060008873ffffffffffffffffffffffffffffffffffffffff1673ffffffffffffffffffffffffffffffffffffffff168152602001908152602001600020546107479190611eeb565b61112e565b6001905092915050565b61075e611126565b73ffffffffffffffffffffffffffffffffffffffff1661077c610c7d565b73ffffffffffffffffffffffffffffffffffffffff16146107d2576040517f08c379a00000000000000000000000000000000000000000000000000000000081526004016107c990611f8d565b60405180910390fd5b6001600660008260038111156107eb576107ea611e21565b5b60038111156107fd576107fc611e21565b5b815260200190815260200160002060009054906101000a900460ff16610858576040517f08c379a000000000000000000000000000000000000000000000000000000000815260040161084f90611e9c565b60405180910390fd5b610862838361157a565b505050565b61086f611126565b73ffffffffffffffffffffffffffffffffffffffff1661088d610c7d565b73ffffffffffffffffffffffffffffffffffffffff16146108e3576040517f08c379a00000000000000000000000000000000000000000000000000000000081526004016108da90611f8d565b60405180910390fd5b6000600660008260038111156108fc576108fb611e21565b5b600381111561090e5761090d611e21565b5b815260200190815260200160002060009054906101000a900460ff16610969576040517f08c379a000000000000000000000000000000000000000000000000000000000815260040161096090611e9c565b60405180910390fd5b61097a610974611126565b836115fd565b5050565b6000600560009054906101000a900460ff16905090565b60008060008373ffffffffffffffffffffffffffffffffffffffff1673ffffffffffffffffffffffffffffffffffffffff168152602001908152602001600020549050919050565b6109e5611126565b73ffffffffffffffffffffffffffffffffffffffff16610a03610c7d565b73ffffffffffffffffffffffffffffffffffffffff1614610a59576040517f08c379a0000000000000000000000000000000000000000000000000000000008152600401610a5090611f8d565b60405180910390fd5b610a6360006117d4565b565b600060066000826003811115610a7e57610a7d611e21565b5b6003811115610a9057610a8f611e21565b5b815260200190815260200160002060009054906101000a900460ff16610aeb576040517f08c379a0000000000000000000000000000000000000000000000000000000008152600401610ae290611e9c565b60405180910390fd5b6000610afe84610af9611126565b610e42565b905082811015610b43576040517f08c379a0000000000000000000000000000000000000000000000000000000008152600401610b3a9061201f565b60405180910390fd5b610b6084610b4f611126565b8584610b5b919061203f565b61112e565b610b6a84846115fd565b50505050565b610b78611126565b73ffffffffffffffffffffffffffffffffffffffff16610b96610c7d565b73ffffffffffffffffffffffffffffffffffffffff1614610bec576040517f08c379a0000000000000000000000000000000000000000000000000000000008152600401610be390611f8d565b60405180910390fd5b600260066000826003811115610c0557610c04611e21565b5b6003811115610c1757610c16611e21565b5b815260200190815260200160002060009054906101000a900460ff16610c72576040517f08c379a0000000000000000000000000000000000000000000000000000000008152600401610c6990611e9c565b60405180910390fd5b610c7a61189a565b50565b6000600560019054906101000a900473ffffffffffffffffffffffffffffffffffffffff16905090565b606060048054610cb690611d5d565b80601f0160208091040260200160405190810160405280929190818152602001828054610ce290611d5d565b8015610d2f5780601f10610d0457610100808354040283529160200191610d2f565b820191906000526020600020905b815481529060010190602001808311610d1257829003601f168201915b5050505050905090565b60008060016000610d48611126565b73ffffffffffffffffffffffffffffffffffffffff1673ffffffffffffffffffffffffffffffffffffffff16815260200190815260200160002060008573ffffffffffffffffffffffffffffffffffffffff1673ffffffffffffffffffffffffffffffffffffffff16815260200190815260200160002054905082811015610e05576040517f08c379a0000000000000000000000000000000000000000000000000000000008152600401610dfc906120e5565b60405180910390fd5b610e19610e10611126565b8585840361112e565b600191505092915050565b6000610e38610e31611126565b84846112f9565b6001905092915050565b6000600160008473ffffffffffffffffffffffffffffffffffffffff1673ffffffffffffffffffffffffffffffffffffffff16815260200190815260200160002060008373ffffffffffffffffffffffffffffffffffffffff1673ffffffffffffffffffffffffffffffffffffffff16815260200190815260200160002054905092915050565b610ed1611126565b73ffffffffffffffffffffffffffffffffffffffff16610eef610c7d565b73ffffffffffffffffffffffffffffffffffffffff1614610f45576040517f08c379a0000000000000000000000000000000000000000000000000000000008152600401610f3c90611f8d565b60405180910390fd5b600073ffffffffffffffffffffffffffffffffffffffff168173ffffffffffffffffffffffffffffffffffffffff161415610fb5576040517f08c379a0000000000000000000000000000000000000000000000000000000008152600401610fac90612177565b60405180910390fd5b610fbe816117d4565b50565b600073ffffffffffffffffffffffffffffffffffffffff168273ffffffffffffffffffffffffffffffffffffffff161415611031576040517f08c379a0000000000000000000000000000000000000000000000000000000008152600401611028906121e3565b60405180910390fd5b61103d6000838361193d565b806002600082825461104f9190611eeb565b92505081905550806000808473ffffffffffffffffffffffffffffffffffffffff1673ffffffffffffffffffffffffffffffffffffffff16815260200190815260200160002060008282546110a49190611eeb565b925050819055508173ffffffffffffffffffffffffffffffffffffffff16600073ffffffffffffffffffffffffffffffffffffffff167fddf252ad1be2c89b69c2b068fc378daa952ba7f163c4a11628f55a4df523b3ef836040516111099190611b73565b60405180910390a361111d60008383611995565b5050565b505050565b600033905090565b600073ffffffffffffffffffffffffffffffffffffffff168373ffffffffffffffffffffffffffffffffffffffff16141561119e576040517f08c379a000000000000000000000000000000000000000000000000000000000815260040161119590612275565b60405180910390fd5b600073ffffffffffffffffffffffffffffffffffffffff168273ffffffffffffffffffffffffffffffffffffffff16141561120e576040517f08c379a000000000000000000000000000000000000000000000000000000000815260040161120590612307565b60405180910390fd5b80600160008573ffffffffffffffffffffffffffffffffffffffff1673ffffffffffffffffffffffffffffffffffffffff16815260200190815260200160002060008473ffffffffffffffffffffffffffffffffffffffff1673ffffffffffffffffffffffffffffffffffffffff168152602001908152602001600020819055508173ffffffffffffffffffffffffffffffffffffffff168373ffffffffffffffffffffffffffffffffffffffff167f8c5be1e5ebec7d5bd14f71427d1e84f3dd0314c0f7b2291e5b200ac8c7c3b925836040516112ec9190611b73565b60405180910390a3505050565b600073ffffffffffffffffffffffffffffffffffffffff168373ffffffffffffffffffffffffffffffffffffffff161415611369576040517f08c379a000000000000000000000000000000000000000000000000000000000815260040161136090612399565b60405180910390fd5b600073ffffffffffffffffffffffffffffffffffffffff168273ffffffffffffffffffffffffffffffffffffffff1614156113d9576040517f08c379a00000000000000000000000000000000000000000000000000000000081526004016113d09061242b565b60405180910390fd5b6113e483838361193d565b60008060008573ffffffffffffffffffffffffffffffffffffffff1673ffffffffffffffffffffffffffffffffffffffff1681526020019081526020016000205490508181101561146a576040517f08c379a0000000000000000000000000000000000000000000000000000000008152600401611461906124bd565b60405180910390fd5b8181036000808673ffffffffffffffffffffffffffffffffffffffff1673ffffffffffffffffffffffffffffffffffffffff16815260200190815260200160002081905550816000808573ffffffffffffffffffffffffffffffffffffffff1673ffffffffffffffffffffffffffffffffffffffff16815260200190815260200160002060008282546114fd9190611eeb565b925050819055508273ffffffffffffffffffffffffffffffffffffffff168473ffffffffffffffffffffffffffffffffffffffff167fddf252ad1be2c89b69c2b068fc378daa952ba7f163c4a11628f55a4df523b3ef846040516115619190611b73565b60405180910390a3611574848484611995565b50505050565b7f0000000000000000000000000000000000000000000000000000000000000000816115a46104c2565b6115ae9190611eeb565b11156115ef576040517f08c379a00000000000000000000000000000000000000000000000000000000081526004016115e690612529565b60405180910390fd5b6115f98282610fc1565b5050565b600073ffffffffffffffffffffffffffffffffffffffff168273ffffffffffffffffffffffffffffffffffffffff16141561166d576040517f08c379a0000000000000000000000000000000000000000000000000000000008152600401611664906125bb565b60405180910390fd5b6116798260008361193d565b60008060008473ffffffffffffffffffffffffffffffffffffffff1673ffffffffffffffffffffffffffffffffffffffff168152602001908152602001600020549050818110156116ff576040517f08c379a00000000000000000000000000000000000000000000000000000000081526004016116f69061264d565b60405180910390fd5b8181036000808573ffffffffffffffffffffffffffffffffffffffff1673ffffffffffffffffffffffffffffffffffffffff168152602001908152602001600020819055508160026000828254611756919061203f565b92505081905550600073ffffffffffffffffffffffffffffffffffffffff168373ffffffffffffffffffffffffffffffffffffffff167fddf252ad1be2c89b69c2b068fc378daa952ba7f163c4a11628f55a4df523b3ef846040516117bb9190611b73565b60405180910390a36117cf83600084611995565b505050565b6000600560019054906101000a900473ffffffffffffffffffffffffffffffffffffffff16905081600560016101000a81548173ffffffffffffffffffffffffffffffffffffffff021916908373ffffffffffffffffffffffffffffffffffffffff1602179055508173ffffffffffffffffffffffffffffffffffffffff168173ffffffffffffffffffffffffffffffffffffffff167f8be0079c531659141344cd1fd0a4f28419497f9722a3daafe3b4186f6b6457e060405160405180910390a35050565b6118a261097e565b156118e2576040517f08c379a00000000000000000000000000000000000000000000000000000000081526004016118d9906126b9565b60405180910390fd5b6001600560006101000a81548160ff0219169083151502179055507f62e78cea01bee320cd4e420270b5ea74000d11b0c9f74754ebdbfc544b05a258611926611126565b6040516119339190611cd3565b60405180910390a1565b611948838383611121565b61195061097e565b15611990576040517f08c379a00000000000000000000000000000000000000000000000000000000081526004016119879061274b565b60405180910390fd5b505050565b505050565b600081519050919050565b600082825260208201905092915050565b60005b838110156119d45780820151818401526020810190506119b9565b838111156119e3576000848401525b50505050565b6000601f19601f8301169050919050565b6000611a058261199a565b611a0f81856119a5565b9350611a1f8185602086016119b6565b611a28816119e9565b840191505092915050565b60006020820190508181036000830152611a4d81846119fa565b905092915050565b600080fd5b600073ffffffffffffffffffffffffffffffffffffffff82169050919050565b6000611a8582611a5a565b9050919050565b611a9581611a7a565b8114611aa057600080fd5b50565b600081359050611ab281611a8c565b92915050565b6000819050919050565b611acb81611ab8565b8114611ad657600080fd5b50565b600081359050611ae881611ac2565b92915050565b60008060408385031215611b0557611b04611a55565b5b6000611b1385828601611aa3565b9250506020611b2485828601611ad9565b9150509250929050565b60008115159050919050565b611b4381611b2e565b82525050565b6000602082019050611b5e6000830184611b3a565b92915050565b611b6d81611ab8565b82525050565b6000602082019050611b886000830184611b64565b92915050565b600080600060608486031215611ba757611ba6611a55565b5b6000611bb586828701611aa3565b9350506020611bc686828701611aa3565b9250506040611bd786828701611ad9565b9150509250925092565b60048110611bee57600080fd5b50565b600081359050611c0081611be1565b92915050565b600060208284031215611c1c57611c1b611a55565b5b6000611c2a84828501611bf1565b91505092915050565b600060ff82169050919050565b611c4981611c33565b82525050565b6000602082019050611c646000830184611c40565b92915050565b600060208284031215611c8057611c7f611a55565b5b6000611c8e84828501611ad9565b91505092915050565b600060208284031215611cad57611cac611a55565b5b6000611cbb84828501611aa3565b91505092915050565b611ccd81611a7a565b82525050565b6000602082019050611ce86000830184611cc4565b92915050565b60008060408385031215611d0557611d04611a55565b5b6000611d1385828601611aa3565b9250506020611d2485828601611aa3565b9150509250929050565b7f4e487b7100000000000000000000000000000000000000000000000000000000600052602260045260246000fd5b60006002820490506001821680611d7557607f821691505b60208210811415611d8957611d88611d2e565b5b50919050565b7f45524332303a207472616e7366657220616d6f756e742065786365656473206160008201527f6c6c6f77616e6365000000000000000000000000000000000000000000000000602082015250565b6000611deb6028836119a5565b9150611df682611d8f565b604082019050919050565b60006020820190508181036000830152611e1a81611dde565b9050919050565b7f4e487b7100000000000000000000000000000000000000000000000000000000600052602160045260246000fd5b7f43414e4e4f542055534520544849532046554e4354494f4e414c495459000000600082015250565b6000611e86601d836119a5565b9150611e9182611e50565b602082019050919050565b60006020820190508181036000830152611eb581611e79565b9050919050565b7f4e487b7100000000000000000000000000000000000000000000000000000000600052601160045260246000fd5b6000611ef682611ab8565b9150611f0183611ab8565b9250827fffffffffffffffffffffffffffffffffffffffffffffffffffffffffffffffff03821115611f3657611f35611ebc565b5b828201905092915050565b7f4f776e61626c653a2063616c6c6572206973206e6f7420746865206f776e6572600082015250565b6000611f776020836119a5565b9150611f8282611f41565b602082019050919050565b60006020820190508181036000830152611fa681611f6a565b9050919050565b7f45524332303a206275726e20616d6f756e74206578636565647320616c6c6f7760008201527f616e636500000000000000000000000000000000000000000000000000000000602082015250565b60006120096024836119a5565b915061201482611fad565b604082019050919050565b6000602082019050818103600083015261203881611ffc565b9050919050565b600061204a82611ab8565b915061205583611ab8565b92508282101561206857612067611ebc565b5b828203905092915050565b7f45524332303a2064656372656173656420616c6c6f77616e63652062656c6f7760008201527f207a65726f000000000000000000000000000000000000000000000000000000602082015250565b60006120cf6025836119a5565b91506120da82612073565b604082019050919050565b600060208201905081810360008301526120fe816120c2565b9050919050565b7f4f776e61626c653a206e6577206f776e657220697320746865207a65726f206160008201527f6464726573730000000000000000000000000000000000000000000000000000602082015250565b60006121616026836119a5565b915061216c82612105565b604082019050919050565b6000602082019050818103600083015261219081612154565b9050919050565b7f45524332303a206d696e7420746f20746865207a65726f206164647265737300600082015250565b60006121cd601f836119a5565b91506121d882612197565b602082019050919050565b600060208201905081810360008301526121fc816121c0565b9050919050565b7f45524332303a20617070726f76652066726f6d20746865207a65726f2061646460008201527f7265737300000000000000000000000000000000000000000000000000000000602082015250565b600061225f6024836119a5565b915061226a82612203565b604082019050919050565b6000602082019050818103600083015261228e81612252565b9050919050565b7f45524332303a20617070726f766520746f20746865207a65726f20616464726560008201527f7373000000000000000000000000000000000000000000000000000000000000602082015250565b60006122f16022836119a5565b91506122fc82612295565b604082019050919050565b60006020820190508181036000830152612320816122e4565b9050919050565b7f45524332303a207472616e736665722066726f6d20746865207a65726f20616460008201527f6472657373000000000000000000000000000000000000000000000000000000602082015250565b60006123836025836119a5565b915061238e82612327565b604082019050919050565b600060208201905081810360008301526123b281612376565b9050919050565b7f45524332303a207472616e7366657220746f20746865207a65726f206164647260008201527f6573730000000000000000000000000000000000000000000000000000000000602082015250565b60006124156023836119a5565b9150612420826123b9565b604082019050919050565b6000602082019050818103600083015261244481612408565b9050919050565b7f45524332303a207472616e7366657220616d6f756e742065786365656473206260008201527f616c616e63650000000000000000000000000000000000000000000000000000602082015250565b60006124a76026836119a5565b91506124b28261244b565b604082019050919050565b600060208201905081810360008301526124d68161249a565b9050919050565b7f45524332304361707065643a2063617020657863656564656400000000000000600082015250565b60006125136019836119a5565b915061251e826124dd565b602082019050919050565b6000602082019050818103600083015261254281612506565b9050919050565b7f45524332303a206275726e2066726f6d20746865207a65726f2061646472657360008201527f7300000000000000000000000000000000000000000000000000000000000000602082015250565b60006125a56021836119a5565b91506125b082612549565b604082019050919050565b600060208201905081810360008301526125d481612598565b9050919050565b7f45524332303a206275726e20616d6f756e7420657863656564732062616c616e60008201527f6365000000000000000000000000000000000000000000000000000000000000602082015250565b60006126376022836119a5565b9150612642826125db565b604082019050919050565b600060208201905081810360008301526126668161262a565b9050919050565b7f5061757361626c653a2070617573656400000000000000000000000000000000600082015250565b60006126a36010836119a5565b91506126ae8261266d565b602082019050919050565b600060208201905081810360008301526126d281612696565b9050919050565b7f45524332305061757361626c653a20746f6b656e207472616e7366657220776860008201527f696c652070617573656400000000000000000000000000000000000000000000602082015250565b6000612735602a836119a5565b9150612740826126d9565b604082019050919050565b6000602082019050818103600083015261276481612728565b905091905056fea26469706673582212202e8c2dfa50cb5875210ddd26b8ac781a5116eeb1eaef2ee5387a63b88e84c68d64736f6c63430008090033",
  "linkReferences": {},
  "deployedLinkReferences": {}
}